{
  "contractName": "Plasma",
  "abi": [
    {
      "constant": false,
      "inputs": [],
      "name": "deposit",
      "outputs": [],
      "payable": true,
      "stateMutability": "payable",
      "type": "function"
    },
    {
      "anonymous": false,
      "inputs": [
        {
          "indexed": false,
          "name": "sender",
          "type": "address"
        },
        {
          "indexed": false,
          "name": "value",
          "type": "uint256"
        }
      ],
      "name": "Deposit",
      "type": "event"
    }
  ],
  "bytecode": "0x60606040523415600e57600080fd5b60e58061001c6000396000f300606060405260043610603f576000357c0100000000000000000000000000000000000000000000000000000000900463ffffffff168063d0e30db0146044575b600080fd5b604a604c565b005b7fe1fffcc4923d04b559f4d29a8bfc6cda04eb5b0d3c460751c2402c5c5cc9109c3334604051808373ffffffffffffffffffffffffffffffffffffffff1673ffffffffffffffffffffffffffffffffffffffff1681526020018281526020019250505060405180910390a15600a165627a7a7230582014d4d94fb8f2727c7b9d01107d38cfd1a79484b07f50342e4a4f26abc80c565c0029",
  "source": "pragma solidity ^0.4.17;\n\ncontract Plasma {\n    event Deposit(address sender, uint value);\n\n    function deposit() public payable {\n        Deposit(msg.sender, msg.value);\n    }\n}",
  "sourcePath": "/Users/matthewslipper/go/src/github.com/kyokan/plasma/contracts/contracts/Plasma.sol",
  "compiler": {
    "name": "solc",
    "version": "0.4.18+commit.9cf6e910.Emscripten.clang"
  },
  "schemaVersion": "1.0.1",
  "updatedAt": "2018-02-09T07:29:46.547Z"
}